{
  "transactions": [
    {
      "hash": "0x593fb1839ed41e32f282c57be90b237ea95c6eeedf3e50ce530864dfeeb0abe8",
      "transactionType": "CALL",
      "contractName": null,
      "contractAddress": "0x850f28d7c0e8a1158c4e6b74674b2f52658069ef",
      "function": "setAvsLogic(address)",
      "arguments": [
        "0xF3129E7A264a174AF742604cE59C7b6E640F4A75"
      ],
      "transaction": {
        "from": "0x9a56ffd72f4b526c523c733f1f74197a51c495e1",
        "to": "0x850f28d7c0e8a1158c4e6b74674b2f52658069ef",
        "gas": "0x147a7",
        "value": "0x0",
        "input": "0x008fd386000000000000000000000000f3129e7a264a174af742604ce59c7b6e640f4a75",
        "nonce": "0x9",
        "chainId": "0x14a34"
      },
      "additionalContracts": [],
      "isFixedGasLimit": false
    }
  ],
  "receipts": [
    {
      "status": "0x1",
      "cumulativeGasUsed": "0x2ddee0",
      "logs": [
        {
          "address": "0x850f28d7c0e8a1158c4e6b74674b2f52658069ef",
          "topics": [
            "0xdf0d3b0bf99a87fc195d045bc7ec61d3e2619e6a49dd3f5cb69102b8c9702034"
          ],
          "data": "0x000000000000000000000000f3129e7a264a174af742604ce59c7b6e640f4a75",
          "blockHash": "0x1c0952f7469cc13760151fd311720ae88b64a4328e35e3bd80cce80350cb99fa",
          "blockNumber": "0x156df32",
          "transactionHash": "0x593fb1839ed41e32f282c57be90b237ea95c6eeedf3e50ce530864dfeeb0abe8",
          "transactionIndex": "0x13",
          "logIndex": "0x49",
          "removed": false
        }
      ],
      "logsBloom": "0x00000000000000000000000000020000000000000000000000000000000000000000000000000000000000000000000000000000000000000000000000000000000000000000000000000000000000000000800000000000000000000000000000000000000000000000000000000000000000000000000000000000000000000000000000000000000000000000000000000000000000000000000000000000000000000000000000000000000000000000000000000000000000000000000000000000000000024000000000000000000000000000000000000000000000000000000040000000000000000000000000000000000000000000000000100000",
      "type": "0x2",
      "transactionHash": "0x593fb1839ed41e32f282c57be90b237ea95c6eeedf3e50ce530864dfeeb0abe8",
      "transactionIndex": "0x13",
      "blockHash": "0x1c0952f7469cc13760151fd311720ae88b64a4328e35e3bd80cce80350cb99fa",
      "blockNumber": "0x156df32",
      "gasUsed": "0xed38",
      "effectiveGasPrice": "0xf4404",
      "from": "0x9a56ffd72f4b526c523c733f1f74197a51c495e1",
      "to": "0x850f28d7c0e8a1158c4e6b74674b2f52658069ef",
      "contractAddress": null,
      "l1BaseFeeScalar": "0x44d",
      "l1BlobBaseFee": "0x6dbe41789",
      "l1BlobBaseFeeScalar": "0xa118b",
      "l1Fee": "0x1c507ff5f9d",
      "l1GasPrice": "0x4059144a",
      "l1GasUsed": "0x640"
    }
  ],
  "libraries": [],
  "pending": [],
  "returns": {},
  "timestamp": 1740709189,
  "chain": 84532,
  "commit": "0a85149"
}