{
  "transactions": [
    {
      "hash": "0x6634dc8939d02da6270b84df6ddaffe660c3843c56de8be63f40cf7617d7369a",
      "transactionType": "CALL",
      "contractName": null,
      "contractAddress": "0x3a5890d3f7cdb45f4c8d08a2969ad5084fdb7f78",
      "function": "approve(address,uint256)",
      "arguments": [
        "0xF3129E7A264a174AF742604cE59C7b6E640F4A75",
        "10000000000000000"
      ],
      "transaction": {
        "from": "0x9a56ffd72f4b526c523c733f1f74197a51c495e1",
        "to": "0x3a5890d3f7cdb45f4c8d08a2969ad5084fdb7f78",
        "gas": "0xfa43",
        "value": "0x0",
        "input": "0x095ea7b3000000000000000000000000f3129e7a264a174af742604ce59c7b6e640f4a75000000000000000000000000000000000000000000000000002386f26fc10000",
        "nonce": "0x47",
        "chainId": "0x14a34"
      },
      "additionalContracts": [],
      "isFixedGasLimit": false
    },
    {
      "hash": "0x39c53dc4e2a019997087319b34b18c8fe2160c33ec6c9362e3dda3926cebbc3b",
      "transactionType": "CALL",
      "contractName": null,
      "contractAddress": "0xf3129e7a264a174af742604ce59c7b6e640f4a75",
      "function": "bridgeERC20AndCreateTask(address,uint256,uint256)",
      "arguments": [
        "0x3A5890D3F7cDB45F4c8d08a2969AD5084Fdb7f78",
        "10000000000000000",
        "11155420"
      ],
      "transaction": {
        "from": "0x9a56ffd72f4b526c523c733f1f74197a51c495e1",
        "to": "0xf3129e7a264a174af742604ce59c7b6e640f4a75",
        "gas": "0x16dfe",
        "value": "0x0",
        "input": "0xfcde44a30000000000000000000000003a5890d3f7cdb45f4c8d08a2969ad5084fdb7f78000000000000000000000000000000000000000000000000002386f26fc100000000000000000000000000000000000000000000000000000000000000aa37dc",
        "nonce": "0x48",
        "chainId": "0x14a34"
      },
      "additionalContracts": [],
      "isFixedGasLimit": false
    }
  ],
  "receipts": [
    {
      "status": "0x1",
      "cumulativeGasUsed": "0x64c091",
      "logs": [
        {
          "address": "0x3a5890d3f7cdb45f4c8d08a2969ad5084fdb7f78",
          "topics": [
            "0x8c5be1e5ebec7d5bd14f71427d1e84f3dd0314c0f7b2291e5b200ac8c7c3b925",
            "0x0000000000000000000000009a56ffd72f4b526c523c733f1f74197a51c495e1",
            "0x000000000000000000000000f3129e7a264a174af742604ce59c7b6e640f4a75"
          ],
          "data": "0x000000000000000000000000000000000000000000000000002386f26fc10000",
          "blockHash": "0xb1f6368a91aeb27c9293dd4202a3e49af54ae5ec8e650618f9326ca2583fc678",
          "blockNumber": "0x15701b9",
          "transactionHash": "0x6634dc8939d02da6270b84df6ddaffe660c3843c56de8be63f40cf7617d7369a",
          "transactionIndex": "0x32",
          "logIndex": "0x93",
          "removed": false
        }
      ],
      "logsBloom": "0x00000004000000000000000000000000000000002000000000000000000000000000000000000000000000000000000000000000000000000000000000200000000000000000000000000000000000000000000000000000000000000000000000000000000000000000000000000000000004000000000000000000000000000000000000000000000000000800000000000000000000000000000000000000020000000000000000000000000000000000000000000000000000000000020000000000000000000000000000080200000000000000000000000000000000000010000000000000100000000000000000000000000000008000000000000000",
      "type": "0x2",
      "transactionHash": "0x6634dc8939d02da6270b84df6ddaffe660c3843c56de8be63f40cf7617d7369a",
      "transactionIndex": "0x32",
      "blockHash": "0xb1f6368a91aeb27c9293dd4202a3e49af54ae5ec8e650618f9326ca2583fc678",
      "blockNumber": "0x15701b9",
      "gasUsed": "0xb530",
      "effectiveGasPrice": "0xf4438",
      "from": "0x9a56ffd72f4b526c523c733f1f74197a51c495e1",
      "to": "0x3a5890d3f7cdb45f4c8d08a2969ad5084fdb7f78",
      "contractAddress": null,
      "l1BaseFeeScalar": "0x44d",
      "l1BlobBaseFee": "0x11993d0609",
      "l1BlobBaseFeeScalar": "0xa118b",
      "l1Fee": "0x48aa6c007ce",
      "l1GasPrice": "0xcc7139a3",
      "l1GasUsed": "0x640"
    },
    {
      "status": "0x1",
      "cumulativeGasUsed": "0x6ad44c",
      "logs": [
        {
          "address": "0x3a5890d3f7cdb45f4c8d08a2969ad5084fdb7f78",
          "topics": [
            "0xddf252ad1be2c89b69c2b068fc378daa952ba7f163c4a11628f55a4df523b3ef",
            "0x0000000000000000000000009a56ffd72f4b526c523c733f1f74197a51c495e1",
            "0x000000000000000000000000f3129e7a264a174af742604ce59c7b6e640f4a75"
          ],
          "data": "0x000000000000000000000000000000000000000000000000002386f26fc10000",
          "blockHash": "0xb1f6368a91aeb27c9293dd4202a3e49af54ae5ec8e650618f9326ca2583fc678",
          "blockNumber": "0x15701b9",
          "transactionHash": "0x39c53dc4e2a019997087319b34b18c8fe2160c33ec6c9362e3dda3926cebbc3b",
          "transactionIndex": "0x35",
          "logIndex": "0x9a",
          "removed": false
        },
        {
          "address": "0x3a5890d3f7cdb45f4c8d08a2969ad5084fdb7f78",
          "topics": [
            "0xddf252ad1be2c89b69c2b068fc378daa952ba7f163c4a11628f55a4df523b3ef",
            "0x000000000000000000000000f3129e7a264a174af742604ce59c7b6e640f4a75",
            "0x0000000000000000000000000000000000000000000000000000000000000000"
          ],
          "data": "0x000000000000000000000000000000000000000000000000002386f26fc10000",
          "blockHash": "0xb1f6368a91aeb27c9293dd4202a3e49af54ae5ec8e650618f9326ca2583fc678",
          "blockNumber": "0x15701b9",
          "transactionHash": "0x39c53dc4e2a019997087319b34b18c8fe2160c33ec6c9362e3dda3926cebbc3b",
          "transactionIndex": "0x35",
          "logIndex": "0x9b",
          "removed": false
        },
        {
          "address": "0x3a5890d3f7cdb45f4c8d08a2969ad5084fdb7f78",
          "topics": [
            "0xb90795a66650155983e242cac3e1ac1a4dc26f8ed2987f3ce416a34e00111fd4",
            "0x000000000000000000000000f3129e7a264a174af742604ce59c7b6e640f4a75",
            "0x0000000000000000000000007cfbd302f1f8e02347862641973792cbd60c453f"
          ],
          "data": "0x000000000000000000000000000000000000000000000000002386f26fc10000",
          "blockHash": "0xb1f6368a91aeb27c9293dd4202a3e49af54ae5ec8e650618f9326ca2583fc678",
          "blockNumber": "0x15701b9",
          "transactionHash": "0x39c53dc4e2a019997087319b34b18c8fe2160c33ec6c9362e3dda3926cebbc3b",
          "transactionIndex": "0x35",
          "logIndex": "0x9c",
          "removed": false
        },
        {
          "address": "0x7cfbd302f1f8e02347862641973792cbd60c453f",
          "topics": [
            "0x0247bfe63a1aaa59e073e20b172889babfda8d3273b5798e0e9ac4388e6dd11c",
            "0x0000000000000000000000003a5890d3f7cdb45f4c8d08a2969ad5084fdb7f78",
            "0x000000000000000000000000f3129e7a264a174af742604ce59c7b6e640f4a75",
            "0x0000000000000000000000009a56ffd72f4b526c523c733f1f74197a51c495e1"
          ],
          "data": "0x000000000000000000000000000000000000000000000000002386f26fc100000000000000000000000000000000000000000000000000000000000000aa37dc",
          "blockHash": "0xb1f6368a91aeb27c9293dd4202a3e49af54ae5ec8e650618f9326ca2583fc678",
          "blockNumber": "0x15701b9",
          "transactionHash": "0x39c53dc4e2a019997087319b34b18c8fe2160c33ec6c9362e3dda3926cebbc3b",
          "transactionIndex": "0x35",
          "logIndex": "0x9d",
          "removed": false
        },
        {
          "address": "0xf3129e7a264a174af742604ce59c7b6e640f4a75",
          "topics": [
            "0x2f0331e9e6ae0b6e79a0f08c7b69e375fd5a685cb53a26029dbc8554e2768700",
            "0x0000000000000000000000000000000000000000000000000000000000014a34",
            "0x0000000000000000000000003a5890d3f7cdb45f4c8d08a2969ad5084fdb7f78"
          ],
          "data": "0x0000000000000000000000009a56ffd72f4b526c523c733f1f74197a51c495e10000000000000000000000009a56ffd72f4b526c523c733f1f74197a51c495e1000000000000000000000000000000000000000000000000002386f26fc100000000000000000000000000000000000000000000000000000000000000aa37dcba9eaf5d2dc5866c377d7a1afec1d1a30742fa99f4bb0fb21ee79494410c845e",
          "blockHash": "0xb1f6368a91aeb27c9293dd4202a3e49af54ae5ec8e650618f9326ca2583fc678",
          "blockNumber": "0x15701b9",
          "transactionHash": "0x39c53dc4e2a019997087319b34b18c8fe2160c33ec6c9362e3dda3926cebbc3b",
          "transactionIndex": "0x35",
          "logIndex": "0x9e",
          "removed": false
        }
      ],
      "logsBloom": "0x00000004000a000000000000000000000000000020000002000000000002000000008000000000000000000000000000000000000000000000000000000400008000c0000000000000000009000000000000000000800000000000000000000100000000020000000000008000002800000004000000000040000010000000000000000080000000000000000800000000000000000000000000010000000000000000000000000000000000000000000000000000000000000000000010021800000002000000000020001800080200000000000000000000000000000020000000000000000000100000000000000000010000000000008000000000000000",
      "type": "0x2",
      "transactionHash": "0x39c53dc4e2a019997087319b34b18c8fe2160c33ec6c9362e3dda3926cebbc3b",
      "transactionIndex": "0x35",
      "blockHash": "0xb1f6368a91aeb27c9293dd4202a3e49af54ae5ec8e650618f9326ca2583fc678",
      "blockNumber": "0x15701b9",
      "gasUsed": "0xfa41",
      "effectiveGasPrice": "0xf4438",
      "from": "0x9a56ffd72f4b526c523c733f1f74197a51c495e1",
      "to": "0xf3129e7a264a174af742604ce59c7b6e640f4a75",
      "contractAddress": null,
      "l1BaseFeeScalar": "0x44d",
      "l1BlobBaseFee": "0x11993d0609",
      "l1BlobBaseFeeScalar": "0xa118b",
      "l1Fee": "0x48aa6c007ce",
      "l1GasPrice": "0xcc7139a3",
      "l1GasUsed": "0x640"
    }
  ],
  "libraries": [],
  "pending": [],
  "returns": {},
  "timestamp": 1740726867,
  "chain": 84532,
  "commit": "3684d75"
}