{
  "transactions": [
    {
      "hash": "0x34e7d8fd6d03fa9a64f2168c18bd58f525b82f431cd6636e9271fe6093bd16dc",
      "transactionType": "CALL",
      "contractName": null,
      "contractAddress": "0x3a5890d3f7cdb45f4c8d08a2969ad5084fdb7f78",
      "function": "approve(address,uint256)",
      "arguments": [
        "0xF3129E7A264a174AF742604cE59C7b6E640F4A75",
        "10000000000000000"
      ],
      "transaction": {
        "from": "0x9a56ffd72f4b526c523c733f1f74197a51c495e1",
        "to": "0x3a5890d3f7cdb45f4c8d08a2969ad5084fdb7f78",
        "gas": "0xfa43",
        "value": "0x0",
        "input": "0x095ea7b3000000000000000000000000f3129e7a264a174af742604ce59c7b6e640f4a75000000000000000000000000000000000000000000000000002386f26fc10000",
        "nonce": "0x23",
        "chainId": "0x14a34"
      },
      "additionalContracts": [],
      "isFixedGasLimit": false
    },
    {
      "hash": "0x78c8bc1b96fa8612875dddbe3227faf681add708f0d190d26017b5027fdd440a",
      "transactionType": "CALL",
      "contractName": null,
      "contractAddress": "0xf3129e7a264a174af742604ce59c7b6e640f4a75",
      "function": "bridgeERC20AndCreateTask(address,uint256,uint256)",
      "arguments": [
        "0x3A5890D3F7cDB45F4c8d08a2969AD5084Fdb7f78",
        "10000000000000000",
        "11155420"
      ],
      "transaction": {
        "from": "0x9a56ffd72f4b526c523c733f1f74197a51c495e1",
        "to": "0xf3129e7a264a174af742604ce59c7b6e640f4a75",
        "gas": "0x16dfe",
        "value": "0x0",
        "input": "0xfcde44a30000000000000000000000003a5890d3f7cdb45f4c8d08a2969ad5084fdb7f78000000000000000000000000000000000000000000000000002386f26fc100000000000000000000000000000000000000000000000000000000000000aa37dc",
        "nonce": "0x24",
        "chainId": "0x14a34"
      },
      "additionalContracts": [],
      "isFixedGasLimit": false
    }
  ],
  "receipts": [
    {
      "status": "0x1",
      "cumulativeGasUsed": "0x692796",
      "logs": [
        {
          "address": "0x3a5890d3f7cdb45f4c8d08a2969ad5084fdb7f78",
          "topics": [
            "0x8c5be1e5ebec7d5bd14f71427d1e84f3dd0314c0f7b2291e5b200ac8c7c3b925",
            "0x0000000000000000000000009a56ffd72f4b526c523c733f1f74197a51c495e1",
            "0x000000000000000000000000f3129e7a264a174af742604ce59c7b6e640f4a75"
          ],
          "data": "0x000000000000000000000000000000000000000000000000002386f26fc10000",
          "blockHash": "0x05bff6aa5f30c33bc99adca491828f9d9a4d8a60ec8e940a2fa49af771b37641",
          "blockNumber": "0x156f2c0",
          "transactionHash": "0x34e7d8fd6d03fa9a64f2168c18bd58f525b82f431cd6636e9271fe6093bd16dc",
          "transactionIndex": "0x2c",
          "logIndex": "0x94",
          "removed": false
        }
      ],
      "logsBloom": "0x00000004000000000000000000000000000000002000000000000000000000000000000000000000000000000000000000000000000000000000000000200000000000000000000000000000000000000000000000000000000000000000000000000000000000000000000000000000000004000000000000000000000000000000000000000000000000000800000000000000000000000000000000000000020000000000000000000000000000000000000000000000000000000000020000000000000000000000000000080200000000000000000000000000000000000010000000000000100000000000000000000000000000008000000000000000",
      "type": "0x2",
      "transactionHash": "0x34e7d8fd6d03fa9a64f2168c18bd58f525b82f431cd6636e9271fe6093bd16dc",
      "transactionIndex": "0x2c",
      "blockHash": "0x05bff6aa5f30c33bc99adca491828f9d9a4d8a60ec8e940a2fa49af771b37641",
      "blockNumber": "0x156f2c0",
      "gasUsed": "0xb530",
      "effectiveGasPrice": "0xcb742",
      "from": "0x9a56ffd72f4b526c523c733f1f74197a51c495e1",
      "to": "0x3a5890d3f7cdb45f4c8d08a2969ad5084fdb7f78",
      "contractAddress": null,
      "l1BaseFeeScalar": "0x44d",
      "l1BlobBaseFee": "0x56b5ee0c5",
      "l1BlobBaseFeeScalar": "0xa118b",
      "l1Fee": "0x166854babec",
      "l1GasPrice": "0x85b0675d",
      "l1GasUsed": "0x640"
    },
    {
      "status": "0x1",
      "cumulativeGasUsed": "0x9f0ac",
      "logs": [
        {
          "address": "0x3a5890d3f7cdb45f4c8d08a2969ad5084fdb7f78",
          "topics": [
            "0xddf252ad1be2c89b69c2b068fc378daa952ba7f163c4a11628f55a4df523b3ef",
            "0x0000000000000000000000009a56ffd72f4b526c523c733f1f74197a51c495e1",
            "0x000000000000000000000000f3129e7a264a174af742604ce59c7b6e640f4a75"
          ],
          "data": "0x000000000000000000000000000000000000000000000000002386f26fc10000",
          "blockHash": "0x07117992127f28e114ad873436561b5ca1c97f8dffd6c85e11632d554b170314",
          "blockNumber": "0x156f2c1",
          "transactionHash": "0x78c8bc1b96fa8612875dddbe3227faf681add708f0d190d26017b5027fdd440a",
          "transactionIndex": "0x4",
          "logIndex": "0xe",
          "removed": false
        },
        {
          "address": "0x3a5890d3f7cdb45f4c8d08a2969ad5084fdb7f78",
          "topics": [
            "0xddf252ad1be2c89b69c2b068fc378daa952ba7f163c4a11628f55a4df523b3ef",
            "0x000000000000000000000000f3129e7a264a174af742604ce59c7b6e640f4a75",
            "0x0000000000000000000000000000000000000000000000000000000000000000"
          ],
          "data": "0x000000000000000000000000000000000000000000000000002386f26fc10000",
          "blockHash": "0x07117992127f28e114ad873436561b5ca1c97f8dffd6c85e11632d554b170314",
          "blockNumber": "0x156f2c1",
          "transactionHash": "0x78c8bc1b96fa8612875dddbe3227faf681add708f0d190d26017b5027fdd440a",
          "transactionIndex": "0x4",
          "logIndex": "0xf",
          "removed": false
        },
        {
          "address": "0x3a5890d3f7cdb45f4c8d08a2969ad5084fdb7f78",
          "topics": [
            "0xb90795a66650155983e242cac3e1ac1a4dc26f8ed2987f3ce416a34e00111fd4",
            "0x000000000000000000000000f3129e7a264a174af742604ce59c7b6e640f4a75",
            "0x0000000000000000000000007cfbd302f1f8e02347862641973792cbd60c453f"
          ],
          "data": "0x000000000000000000000000000000000000000000000000002386f26fc10000",
          "blockHash": "0x07117992127f28e114ad873436561b5ca1c97f8dffd6c85e11632d554b170314",
          "blockNumber": "0x156f2c1",
          "transactionHash": "0x78c8bc1b96fa8612875dddbe3227faf681add708f0d190d26017b5027fdd440a",
          "transactionIndex": "0x4",
          "logIndex": "0x10",
          "removed": false
        },
        {
          "address": "0x7cfbd302f1f8e02347862641973792cbd60c453f",
          "topics": [
            "0x0247bfe63a1aaa59e073e20b172889babfda8d3273b5798e0e9ac4388e6dd11c",
            "0x0000000000000000000000003a5890d3f7cdb45f4c8d08a2969ad5084fdb7f78",
            "0x000000000000000000000000f3129e7a264a174af742604ce59c7b6e640f4a75",
            "0x0000000000000000000000009a56ffd72f4b526c523c733f1f74197a51c495e1"
          ],
          "data": "0x000000000000000000000000000000000000000000000000002386f26fc100000000000000000000000000000000000000000000000000000000000000aa37dc",
          "blockHash": "0x07117992127f28e114ad873436561b5ca1c97f8dffd6c85e11632d554b170314",
          "blockNumber": "0x156f2c1",
          "transactionHash": "0x78c8bc1b96fa8612875dddbe3227faf681add708f0d190d26017b5027fdd440a",
          "transactionIndex": "0x4",
          "logIndex": "0x11",
          "removed": false
        },
        {
          "address": "0xf3129e7a264a174af742604ce59c7b6e640f4a75",
          "topics": [
            "0x2f0331e9e6ae0b6e79a0f08c7b69e375fd5a685cb53a26029dbc8554e2768700",
            "0x0000000000000000000000000000000000000000000000000000000000014a34",
            "0x0000000000000000000000003a5890d3f7cdb45f4c8d08a2969ad5084fdb7f78"
          ],
          "data": "0x0000000000000000000000009a56ffd72f4b526c523c733f1f74197a51c495e10000000000000000000000009a56ffd72f4b526c523c733f1f74197a51c495e1000000000000000000000000000000000000000000000000002386f26fc100000000000000000000000000000000000000000000000000000000000000aa37dcba9eaf5d2dc5866c377d7a1afec1d1a30742fa99f4bb0fb21ee79494410c845e",
          "blockHash": "0x07117992127f28e114ad873436561b5ca1c97f8dffd6c85e11632d554b170314",
          "blockNumber": "0x156f2c1",
          "transactionHash": "0x78c8bc1b96fa8612875dddbe3227faf681add708f0d190d26017b5027fdd440a",
          "transactionIndex": "0x4",
          "logIndex": "0x12",
          "removed": false
        }
      ],
      "logsBloom": "0x00000004000a000000000000000000000000000020000002000000000002000000008000000000000000000000000000000000000000000000000000000400008000c0000000000000000009000000000000000000800000000000000000000100000000020000000000008000002800000004000000000040000010000000000000000080000000000000000800000000000000000000000000010000000000000000000000000000000000000000000000000000000000000000000010021800000002000000000020001800080200000000000000000000000000000020000000000000000000100000000000000000010000000000008000000000000000",
      "type": "0x2",
      "transactionHash": "0x78c8bc1b96fa8612875dddbe3227faf681add708f0d190d26017b5027fdd440a",
      "transactionIndex": "0x4",
      "blockHash": "0x07117992127f28e114ad873436561b5ca1c97f8dffd6c85e11632d554b170314",
      "blockNumber": "0x156f2c1",
      "gasUsed": "0xfa41",
      "effectiveGasPrice": "0xcb742",
      "from": "0x9a56ffd72f4b526c523c733f1f74197a51c495e1",
      "to": "0xf3129e7a264a174af742604ce59c7b6e640f4a75",
      "contractAddress": null,
      "l1BaseFeeScalar": "0x44d",
      "l1BlobBaseFee": "0x56b5ee0c5",
      "l1BlobBaseFeeScalar": "0xa118b",
      "l1Fee": "0x166854babec",
      "l1GasPrice": "0x85b0675d",
      "l1GasUsed": "0x640"
    }
  ],
  "libraries": [],
  "pending": [],
  "returns": {},
  "timestamp": 1740719203,
  "chain": 84532,
  "commit": "64a8df9"
}