{
  "transactions": [
    {
      "hash": "0x172706a4b9b04192900fb6599aae0ea341643e9e7289f701c07ad03b10f095a7",
      "transactionType": "CREATE",
      "contractName": "SuperChainERC20Bridge",
      "contractAddress": "0xf3129e7a264a174af742604ce59c7b6e640f4a75",
      "function": null,
      "arguments": null,
      "transaction": {
        "from": "0x9a56ffd72f4b526c523c733f1f74197a51c495e1",
        "gas": "0x5ab2b",
        "value": "0x0",
        "input": "0x6080604052348015600e575f5ffd5b506104338061001c5f395ff3fe608060405234801561000f575f5ffd5b506004361061003f575f3560e01c8063502f5bd014610043578063dd1a538714610043578063fcde44a31461005c575b5f5ffd5b61005a6100513660046102c5565b50505050505050565b005b61005a61006a366004610387565b6040516323b872dd60e01b8152336004820152306024820152604481018390526001600160a01b038416906323b872dd906064016020604051808303815f875af11580156100ba573d5f5f3e3d5ffd5b505050506040513d601f19601f820116820180604052508101906100de91906103c4565b504681036101245760405162461bcd60e51b815260206004820152600f60248201526e125b9d985b1a590818da185a5b9259608a1b604482015260640160405180910390fd5b604051631834867b60e31b81526001600160a01b038416600482015233602482015260448101839052606481018290525f90737cfbd302f1f8e02347862641973792cbd60c453f9063c1a433d8906084016020604051808303815f875af1158015610191573d5f5f3e3d5ffd5b505050506040513d601f19601f820116820180604052508101906101b591906103e6565b6040805133808252602082015290810185905260608101849052608081018290529091506001600160a01b0385169046907f2f0331e9e6ae0b6e79a0f08c7b69e375fd5a685cb53a26029dbc8554e27687009060a00160405180910390a350505050565b8015158114610226575f5ffd5b50565b5f5f83601f840112610239575f5ffd5b50813567ffffffffffffffff811115610250575f5ffd5b602083019150836020828501011115610267575f5ffd5b9250929050565b806040810183101561027e575f5ffd5b92915050565b5f5f83601f840112610294575f5ffd5b50813567ffffffffffffffff8111156102ab575f5ffd5b6020830191508360208260051b8501011115610267575f5ffd5b5f5f5f5f5f5f5f60c0888a0312156102db575f5ffd5b873567ffffffffffffffff8111156102f1575f5ffd5b88016080818b031215610302575f5ffd5b9650602088013561031281610219565b9550604088013567ffffffffffffffff81111561032d575f5ffd5b6103398a828b01610229565b909650945061034d90508960608a0161026e565b925060a088013567ffffffffffffffff811115610368575f5ffd5b6103748a828b01610284565b989b979a50959850939692959293505050565b5f5f5f60608486031215610399575f5ffd5b83356001600160a01b03811681146103af575f5ffd5b95602085013595506040909401359392505050565b5f602082840312156103d4575f5ffd5b81516103df81610219565b9392505050565b5f602082840312156103f6575f5ffd5b505191905056fea264697066735822122000486e969d335fa26308e74f07c440c035987c933695b7c4c01081223342c77664736f6c634300081b0033",
        "nonce": "0x6",
        "chainId": "0x14a34"
      },
      "additionalContracts": [],
      "isFixedGasLimit": false
    },
    {
      "hash": "0x20f061a06c5f7855c6f8f864ccca15d5b2f8193b5b6c20f17193f525cc27908a",
      "transactionType": "CALL",
      "contractName": null,
      "contractAddress": "0x3a5890d3f7cdb45f4c8d08a2969ad5084fdb7f78",
      "function": "approve(address,uint256)",
      "arguments": [
        "0xF3129E7A264a174AF742604cE59C7b6E640F4A75",
        "10000000000000000"
      ],
      "transaction": {
        "from": "0x9a56ffd72f4b526c523c733f1f74197a51c495e1",
        "to": "0x3a5890d3f7cdb45f4c8d08a2969ad5084fdb7f78",
        "gas": "0xfa43",
        "value": "0x0",
        "input": "0x095ea7b3000000000000000000000000f3129e7a264a174af742604ce59c7b6e640f4a75000000000000000000000000000000000000000000000000002386f26fc10000",
        "nonce": "0x7",
        "chainId": "0x14a34"
      },
      "additionalContracts": [],
      "isFixedGasLimit": false
    },
    {
      "hash": "0x483367b2b7c81d8b6724b1325a8d911eab84b6e59e9bd7685576fb1704f4459a",
      "transactionType": "CALL",
      "contractName": "SuperChainERC20Bridge",
      "contractAddress": "0xf3129e7a264a174af742604ce59c7b6e640f4a75",
      "function": "bridgeERC20AndCreateTask(address,uint256,uint256)",
      "arguments": [
        "0x3A5890D3F7cDB45F4c8d08a2969AD5084Fdb7f78",
        "10000000000000000",
        "11155420"
      ],
      "transaction": {
        "from": "0x9a56ffd72f4b526c523c733f1f74197a51c495e1",
        "to": "0xf3129e7a264a174af742604ce59c7b6e640f4a75",
        "gas": "0x16dfe",
        "value": "0x0",
        "input": "0xfcde44a30000000000000000000000003a5890d3f7cdb45f4c8d08a2969ad5084fdb7f78000000000000000000000000000000000000000000000000002386f26fc100000000000000000000000000000000000000000000000000000000000000aa37dc",
        "nonce": "0x8",
        "chainId": "0x14a34"
      },
      "additionalContracts": [],
      "isFixedGasLimit": false
    }
  ],
  "receipts": [
    {
      "status": "0x1",
      "cumulativeGasUsed": "0xcd0b2",
      "logs": [],
      "logsBloom": "0x00000000000000000000000000000000000000000000000000000000000000000000000000000000000000000000000000000000000000000000000000000000000000000000000000000000000000000000000000000000000000000000000000000000000000000000000000000000000000000000000000000000000000000000000000000000000000000000000000000000000000000000000000000000000000000000000000000000000000000000000000000000000000000000000000000000000000000000000000000000000000000000000000000000000000000000000000000000000000000000000000000000000000000000000000000000",
      "type": "0x2",
      "transactionHash": "0x172706a4b9b04192900fb6599aae0ea341643e9e7289f701c07ad03b10f095a7",
      "transactionIndex": "0x5",
      "blockHash": "0x0532e1d173ac74c0dffc7bf2a92a284019f67adaa6bdee7eb1b2cbdff0d80a04",
      "blockNumber": "0x156d9e0",
      "gasUsed": "0x45c49",
      "effectiveGasPrice": "0xf43ca",
      "from": "0x9a56ffd72f4b526c523c733f1f74197a51c495e1",
      "to": null,
      "contractAddress": "0xf3129e7a264a174af742604ce59c7b6e640f4a75",
      "l1BaseFeeScalar": "0x44d",
      "l1BlobBaseFee": "0x858bd8b2e",
      "l1BlobBaseFeeScalar": "0xa118b",
      "l1Fee": "0xfcef0d15c78",
      "l1GasPrice": "0x1e32713d",
      "l1GasUsed": "0x2de8"
    },
    {
      "status": "0x1",
      "cumulativeGasUsed": "0x218b9a",
      "logs": [
        {
          "address": "0x3a5890d3f7cdb45f4c8d08a2969ad5084fdb7f78",
          "topics": [
            "0x8c5be1e5ebec7d5bd14f71427d1e84f3dd0314c0f7b2291e5b200ac8c7c3b925",
            "0x0000000000000000000000009a56ffd72f4b526c523c733f1f74197a51c495e1",
            "0x000000000000000000000000f3129e7a264a174af742604ce59c7b6e640f4a75"
          ],
          "data": "0x000000000000000000000000000000000000000000000000002386f26fc10000",
          "blockHash": "0x0532e1d173ac74c0dffc7bf2a92a284019f67adaa6bdee7eb1b2cbdff0d80a04",
          "blockNumber": "0x156d9e0",
          "transactionHash": "0x20f061a06c5f7855c6f8f864ccca15d5b2f8193b5b6c20f17193f525cc27908a",
          "transactionIndex": "0xe",
          "logIndex": "0x23",
          "removed": false
        }
      ],
      "logsBloom": "0x00000004000000000000000000000000000000002000000000000000000000000000000000000000000000000000000000000000000000000000000000200000000000000000000000000000000000000000000000000000000000000000000000000000000000000000000000000000000004000000000000000000000000000000000000000000000000000800000000000000000000000000000000000000020000000000000000000000000000000000000000000000000000000000020000000000000000000000000000080200000000000000000000000000000000000010000000000000100000000000000000000000000000008000000000000000",
      "type": "0x2",
      "transactionHash": "0x20f061a06c5f7855c6f8f864ccca15d5b2f8193b5b6c20f17193f525cc27908a",
      "transactionIndex": "0xe",
      "blockHash": "0x0532e1d173ac74c0dffc7bf2a92a284019f67adaa6bdee7eb1b2cbdff0d80a04",
      "blockNumber": "0x156d9e0",
      "gasUsed": "0xb530",
      "effectiveGasPrice": "0xf43ca",
      "from": "0x9a56ffd72f4b526c523c733f1f74197a51c495e1",
      "to": "0x3a5890d3f7cdb45f4c8d08a2969ad5084fdb7f78",
      "contractAddress": null,
      "l1BaseFeeScalar": "0x44d",
      "l1BlobBaseFee": "0x858bd8b2e",
      "l1BlobBaseFeeScalar": "0xa118b",
      "l1Fee": "0x226f6397266",
      "l1GasPrice": "0x1e32713d",
      "l1GasUsed": "0x640"
    },
    {
      "status": "0x1",
      "cumulativeGasUsed": "0x2285db",
      "logs": [
        {
          "address": "0x3a5890d3f7cdb45f4c8d08a2969ad5084fdb7f78",
          "topics": [
            "0xddf252ad1be2c89b69c2b068fc378daa952ba7f163c4a11628f55a4df523b3ef",
            "0x0000000000000000000000009a56ffd72f4b526c523c733f1f74197a51c495e1",
            "0x000000000000000000000000f3129e7a264a174af742604ce59c7b6e640f4a75"
          ],
          "data": "0x000000000000000000000000000000000000000000000000002386f26fc10000",
          "blockHash": "0x0532e1d173ac74c0dffc7bf2a92a284019f67adaa6bdee7eb1b2cbdff0d80a04",
          "blockNumber": "0x156d9e0",
          "transactionHash": "0x483367b2b7c81d8b6724b1325a8d911eab84b6e59e9bd7685576fb1704f4459a",
          "transactionIndex": "0xf",
          "logIndex": "0x24",
          "removed": false
        },
        {
          "address": "0x3a5890d3f7cdb45f4c8d08a2969ad5084fdb7f78",
          "topics": [
            "0xddf252ad1be2c89b69c2b068fc378daa952ba7f163c4a11628f55a4df523b3ef",
            "0x000000000000000000000000f3129e7a264a174af742604ce59c7b6e640f4a75",
            "0x0000000000000000000000000000000000000000000000000000000000000000"
          ],
          "data": "0x000000000000000000000000000000000000000000000000002386f26fc10000",
          "blockHash": "0x0532e1d173ac74c0dffc7bf2a92a284019f67adaa6bdee7eb1b2cbdff0d80a04",
          "blockNumber": "0x156d9e0",
          "transactionHash": "0x483367b2b7c81d8b6724b1325a8d911eab84b6e59e9bd7685576fb1704f4459a",
          "transactionIndex": "0xf",
          "logIndex": "0x25",
          "removed": false
        },
        {
          "address": "0x3a5890d3f7cdb45f4c8d08a2969ad5084fdb7f78",
          "topics": [
            "0xb90795a66650155983e242cac3e1ac1a4dc26f8ed2987f3ce416a34e00111fd4",
            "0x000000000000000000000000f3129e7a264a174af742604ce59c7b6e640f4a75",
            "0x0000000000000000000000007cfbd302f1f8e02347862641973792cbd60c453f"
          ],
          "data": "0x000000000000000000000000000000000000000000000000002386f26fc10000",
          "blockHash": "0x0532e1d173ac74c0dffc7bf2a92a284019f67adaa6bdee7eb1b2cbdff0d80a04",
          "blockNumber": "0x156d9e0",
          "transactionHash": "0x483367b2b7c81d8b6724b1325a8d911eab84b6e59e9bd7685576fb1704f4459a",
          "transactionIndex": "0xf",
          "logIndex": "0x26",
          "removed": false
        },
        {
          "address": "0x7cfbd302f1f8e02347862641973792cbd60c453f",
          "topics": [
            "0x0247bfe63a1aaa59e073e20b172889babfda8d3273b5798e0e9ac4388e6dd11c",
            "0x0000000000000000000000003a5890d3f7cdb45f4c8d08a2969ad5084fdb7f78",
            "0x000000000000000000000000f3129e7a264a174af742604ce59c7b6e640f4a75",
            "0x0000000000000000000000009a56ffd72f4b526c523c733f1f74197a51c495e1"
          ],
          "data": "0x000000000000000000000000000000000000000000000000002386f26fc100000000000000000000000000000000000000000000000000000000000000aa37dc",
          "blockHash": "0x0532e1d173ac74c0dffc7bf2a92a284019f67adaa6bdee7eb1b2cbdff0d80a04",
          "blockNumber": "0x156d9e0",
          "transactionHash": "0x483367b2b7c81d8b6724b1325a8d911eab84b6e59e9bd7685576fb1704f4459a",
          "transactionIndex": "0xf",
          "logIndex": "0x27",
          "removed": false
        },
        {
          "address": "0xf3129e7a264a174af742604ce59c7b6e640f4a75",
          "topics": [
            "0x2f0331e9e6ae0b6e79a0f08c7b69e375fd5a685cb53a26029dbc8554e2768700",
            "0x0000000000000000000000000000000000000000000000000000000000014a34",
            "0x0000000000000000000000003a5890d3f7cdb45f4c8d08a2969ad5084fdb7f78"
          ],
          "data": "0x0000000000000000000000009a56ffd72f4b526c523c733f1f74197a51c495e10000000000000000000000009a56ffd72f4b526c523c733f1f74197a51c495e1000000000000000000000000000000000000000000000000002386f26fc100000000000000000000000000000000000000000000000000000000000000aa37dcba9eaf5d2dc5866c377d7a1afec1d1a30742fa99f4bb0fb21ee79494410c845e",
          "blockHash": "0x0532e1d173ac74c0dffc7bf2a92a284019f67adaa6bdee7eb1b2cbdff0d80a04",
          "blockNumber": "0x156d9e0",
          "transactionHash": "0x483367b2b7c81d8b6724b1325a8d911eab84b6e59e9bd7685576fb1704f4459a",
          "transactionIndex": "0xf",
          "logIndex": "0x28",
          "removed": false
        }
      ],
      "logsBloom": "0x00000004000a000000000000000000000000000020000002000000000002000000008000000000000000000000000000000000000000000000000000000400008000c0000000000000000009000000000000000000800000000000000000000100000000020000000000008000002800000004000000000040000010000000000000000080000000000000000800000000000000000000000000010000000000000000000000000000000000000000000000000000000000000000000010021800000002000000000020001800080200000000000000000000000000000020000000000000000000100000000000000000010000000000008000000000000000",
      "type": "0x2",
      "transactionHash": "0x483367b2b7c81d8b6724b1325a8d911eab84b6e59e9bd7685576fb1704f4459a",
      "transactionIndex": "0xf",
      "blockHash": "0x0532e1d173ac74c0dffc7bf2a92a284019f67adaa6bdee7eb1b2cbdff0d80a04",
      "blockNumber": "0x156d9e0",
      "gasUsed": "0xfa41",
      "effectiveGasPrice": "0xf43ca",
      "from": "0x9a56ffd72f4b526c523c733f1f74197a51c495e1",
      "to": "0xf3129e7a264a174af742604ce59c7b6e640f4a75",
      "contractAddress": null,
      "l1BaseFeeScalar": "0x44d",
      "l1BlobBaseFee": "0x858bd8b2e",
      "l1BlobBaseFeeScalar": "0xa118b",
      "l1Fee": "0x226f6397266",
      "l1GasPrice": "0x1e32713d",
      "l1GasUsed": "0x640"
    }
  ],
  "libraries": [],
  "pending": [],
  "returns": {},
  "timestamp": 1740706465,
  "chain": 84532,
  "commit": "dcdc993"
}