{
  "transactions": [
    {
      "hash": "0x2961284562e79427a4691a96dbb671f8d17067d4a2d511fb6ec2f338868d102b",
      "transactionType": "CALL",
      "contractName": null,
      "contractAddress": "0x850f28d7c0e8a1158c4e6b74674b2f52658069ef",
      "function": "createNewTaskDefinition(string,(uint256,uint256,uint256,uint256,uint256,uint256,uint256[]))",
      "arguments": [
        "SuperChainERC20 - Bridge",
        "(115792089237316195423570985008687907853269984665640564039457584007913129639935, 10000000000000, 10000000000000, 10000000000000, 0, 0, [])"
      ],
      "transaction": {
        "from": "0x9a56ffd72f4b526c523c733f1f74197a51c495e1",
        "to": "0x850f28d7c0e8a1158c4e6b74674b2f52658069ef",
        "gas": "0x430f6",
        "value": "0x0",
        "input": "0x0c62bf0d0000000000000000000000000000000000000000000000000000000000000040000000000000000000000000000000000000000000000000000000000000008000000000000000000000000000000000000000000000000000000000000000185375706572436861696e4552433230202d204272696467650000000000000000ffffffffffffffffffffffffffffffffffffffffffffffffffffffffffffffff000000000000000000000000000000000000000000000000000009184e72a000000000000000000000000000000000000000000000000000000009184e72a000000000000000000000000000000000000000000000000000000009184e72a0000000000000000000000000000000000000000000000000000000000000000000000000000000000000000000000000000000000000000000000000000000000000000000000000000000000000000000000000000000000000000000000000e00000000000000000000000000000000000000000000000000000000000000000",
        "nonce": "0xb",
        "chainId": "0x14a34"
      },
      "additionalContracts": [],
      "isFixedGasLimit": false
    }
  ],
  "receipts": [
    {
      "status": "0x1",
      "cumulativeGasUsed": "0x5ba34d",
      "logs": [
        {
          "address": "0x850f28d7c0e8a1158c4e6b74674b2f52658069ef",
          "topics": [
            "0x7eae3686e408afa807ebe15ce7995105877e176b7384d0656633435f6e58eab8"
          ],
          "data": "0x00000000000000000000000000000000000000000000000000000000000000020000000000000000000000000000000000000000000000000000000000000140ffffffffffffffffffffffffffffffffffffffffffffffffffffffffffffffff000000000000000000000000000000000000000000000000000009184e72a000000000000000000000000000000000000000000000000000000009184e72a000000000000000000000000000000000000000000000000000000009184e72a000000000000000000000000000000000000000000000000000000000000000000000000000000000000000000000000000000000000000000000000000000000000000000000000000000000000000000000000000000000000000000000000180000000000000000000000000000000000000000000000000000000000000000000000000000000000000000000000000000000000000000000000000000000185375706572436861696e4552433230202d2042726964676500000000000000000000000000000000000000000000000000000000000000000000000000000000",
          "blockHash": "0xe73077408cc71a77c4c3d6edaf2717716e225ac0e4fec2dff61e6345effb7583",
          "blockNumber": "0x156e7f6",
          "transactionHash": "0x2961284562e79427a4691a96dbb671f8d17067d4a2d511fb6ec2f338868d102b",
          "transactionIndex": "0x27",
          "logIndex": "0x80",
          "removed": false
        }
      ],
      "logsBloom": "0x00000000000000000000000000020000000000000000000000000000000000000000000000000000000000000000000000200000000000000000000000000000000000000000000000000000000000000002000000000000000000000000000000000000000000000000000000000000000000000000000000000000000000000000000000000000000000000000000000008000000000000000000000000000000000000000000000000000000000000000000000000000000000000000000000000000000000024000000000000000000000000000000000000000000000000000000000000000000000000000000000000000000000000000000000000000",
      "type": "0x2",
      "transactionHash": "0x2961284562e79427a4691a96dbb671f8d17067d4a2d511fb6ec2f338868d102b",
      "transactionIndex": "0x27",
      "blockHash": "0xe73077408cc71a77c4c3d6edaf2717716e225ac0e4fec2dff61e6345effb7583",
      "blockNumber": "0x156e7f6",
      "gasUsed": "0x308cf",
      "effectiveGasPrice": "0xf44ca",
      "from": "0x9a56ffd72f4b526c523c733f1f74197a51c495e1",
      "to": "0x850f28d7c0e8a1158c4e6b74674b2f52658069ef",
      "contractAddress": null,
      "l1BaseFeeScalar": "0x44d",
      "l1BlobBaseFee": "0x5222bb66",
      "l1BlobBaseFeeScalar": "0xa118b",
      "l1Fee": "0x1b5ca280d8",
      "l1GasPrice": "0x5a7acc18",
      "l1GasUsed": "0x7d8"
    }
  ],
  "libraries": [],
  "pending": [],
  "returns": {},
  "timestamp": 1740713677,
  "chain": 84532,
  "commit": "64a8df9"
}