{
  "transactions": [
    {
      "hash": "0xa0b3708daaec4d67fba71609e218a893b83409e3ae2dc65e3b5693e4b8c93b01",
      "transactionType": "CALL",
      "contractName": null,
      "contractAddress": "0x850f28d7c0e8a1158c4e6b74674b2f52658069ef",
      "function": "createNewTaskDefinition(string,(uint256,uint256,uint256,uint256,uint256,uint256,uint256[]))",
      "arguments": [
        "SuperChainERC20 - Bridge",
        "(115792089237316195423570985008687907853269984665640564039457584007913129639935, 10000000000000, 10000000000000, 10000000000000, 0, 0, [])"
      ],
      "transaction": {
        "from": "0x9a56ffd72f4b526c523c733f1f74197a51c495e1",
        "to": "0x850f28d7c0e8a1158c4e6b74674b2f52658069ef",
        "gas": "0x4d1c5",
        "value": "0x0",
        "input": "0x0c62bf0d0000000000000000000000000000000000000000000000000000000000000040000000000000000000000000000000000000000000000000000000000000008000000000000000000000000000000000000000000000000000000000000000185375706572436861696e4552433230202d204272696467650000000000000000ffffffffffffffffffffffffffffffffffffffffffffffffffffffffffffffff000000000000000000000000000000000000000000000000000009184e72a000000000000000000000000000000000000000000000000000000009184e72a000000000000000000000000000000000000000000000000000000009184e72a0000000000000000000000000000000000000000000000000000000000000000000000000000000000000000000000000000000000000000000000000000000000000000000000000000000000000000000000000000000000000000000000000e00000000000000000000000000000000000000000000000000000000000000000",
        "nonce": "0xa",
        "chainId": "0x14a34"
      },
      "additionalContracts": [],
      "isFixedGasLimit": false
    }
  ],
  "receipts": [
    {
      "status": "0x1",
      "cumulativeGasUsed": "0x9b6057",
      "logs": [
        {
          "address": "0x850f28d7c0e8a1158c4e6b74674b2f52658069ef",
          "topics": [
            "0x7eae3686e408afa807ebe15ce7995105877e176b7384d0656633435f6e58eab8"
          ],
          "data": "0x00000000000000000000000000000000000000000000000000000000000000010000000000000000000000000000000000000000000000000000000000000140ffffffffffffffffffffffffffffffffffffffffffffffffffffffffffffffff000000000000000000000000000000000000000000000000000009184e72a000000000000000000000000000000000000000000000000000000009184e72a000000000000000000000000000000000000000000000000000000009184e72a000000000000000000000000000000000000000000000000000000000000000000000000000000000000000000000000000000000000000000000000000000000000000000000000000000000000000000000000000000000000000000000000180000000000000000000000000000000000000000000000000000000000000000000000000000000000000000000000000000000000000000000000000000000185375706572436861696e4552433230202d2042726964676500000000000000000000000000000000000000000000000000000000000000000000000000000000",
          "blockHash": "0xdae5c075df39d2d72f5f47e9a821ccfaf8c549ab64f417b020979eae917b1de4",
          "blockNumber": "0x156e7d5",
          "transactionHash": "0xa0b3708daaec4d67fba71609e218a893b83409e3ae2dc65e3b5693e4b8c93b01",
          "transactionIndex": "0x4b",
          "logIndex": "0xdf",
          "removed": false
        }
      ],
      "logsBloom": "0x00000000000000000000000000020000000000000000000000000000000000000000000000000000000000000000000000200000000000000000000000000000000000000000000000000000000000000002000000000000000000000000000000000000000000000000000000000000000000000000000000000000000000000000000000000000000000000000000000008000000000000000000000000000000000000000000000000000000000000000000000000000000000000000000000000000000000024000000000000000000000000000000000000000000000000000000000000000000000000000000000000000000000000000000000000000",
      "type": "0x2",
      "transactionHash": "0xa0b3708daaec4d67fba71609e218a893b83409e3ae2dc65e3b5693e4b8c93b01",
      "transactionIndex": "0x4b",
      "blockHash": "0xdae5c075df39d2d72f5f47e9a821ccfaf8c549ab64f417b020979eae917b1de4",
      "blockNumber": "0x156e7d5",
      "gasUsed": "0x34b9b",
      "effectiveGasPrice": "0xf44c9",
      "from": "0x9a56ffd72f4b526c523c733f1f74197a51c495e1",
      "to": "0x850f28d7c0e8a1158c4e6b74674b2f52658069ef",
      "contractAddress": null,
      "l1BaseFeeScalar": "0x44d",
      "l1BlobBaseFee": "0x49026da0",
      "l1BlobBaseFeeScalar": "0xa118b",
      "l1Fee": "0x187045b83e",
      "l1GasPrice": "0x5df58805",
      "l1GasUsed": "0x7d8"
    }
  ],
  "libraries": [],
  "pending": [],
  "returns": {},
  "timestamp": 1740713611,
  "chain": 84532,
  "commit": "64a8df9"
}