{
  "transactions": [
    {
      "hash": "0x456924d9822b9eef561e4634a7fc95e50efce636ff1b91cea7bfbd00c820e3eb",
      "transactionType": "CALL",
      "contractName": null,
      "contractAddress": "0x7cfbd302f1f8e02347862641973792cbd60c453f",
      "function": "relayERC20(address,address,address,uint256)",
      "arguments": [
        "0x3A5890D3F7cDB45F4c8d08a2969AD5084Fdb7f78",
        "0x9a56fFd72F4B526c523C733F1F74197A51c495E1",
        "0x9a56fFd72F4B526c523C733F1F74197A51c495E1",
        "100000000000000000"
      ],
      "transaction": {
        "from": "0x9a56ffd72f4b526c523c733f1f74197a51c495e1",
        "to": "0x7cfbd302f1f8e02347862641973792cbd60c453f",
        "gas": "0x19df6",
        "value": "0x0",
        "input": "0x7cfd6dbc0000000000000000000000003a5890d3f7cdb45f4c8d08a2969ad5084fdb7f780000000000000000000000009a56ffd72f4b526c523c733f1f74197a51c495e10000000000000000000000009a56ffd72f4b526c523c733f1f74197a51c495e1000000000000000000000000000000000000000000000000016345785d8a0000",
        "nonce": "0x2",
        "chainId": "0x397"
      },
      "additionalContracts": [],
      "isFixedGasLimit": false
    }
  ],
  "receipts": [
    {
      "status": "0x1",
      "cumulativeGasUsed": "0x1d717",
      "logs": [
        {
          "address": "0x3a5890d3f7cdb45f4c8d08a2969ad5084fdb7f78",
          "topics": [
            "0xddf252ad1be2c89b69c2b068fc378daa952ba7f163c4a11628f55a4df523b3ef",
            "0x0000000000000000000000000000000000000000000000000000000000000000",
            "0x0000000000000000000000009a56ffd72f4b526c523c733f1f74197a51c495e1"
          ],
          "data": "0x000000000000000000000000000000000000000000000000016345785d8a0000",
          "blockHash": "0x3050fb30e34e8ac764fed3363e8f5e12407be58ba9861c4a7d449ac017dd00d8",
          "blockNumber": "0x1931da7",
          "transactionHash": "0x456924d9822b9eef561e4634a7fc95e50efce636ff1b91cea7bfbd00c820e3eb",
          "transactionIndex": "0x1",
          "logIndex": "0x0",
          "removed": false
        },
        {
          "address": "0x3a5890d3f7cdb45f4c8d08a2969ad5084fdb7f78",
          "topics": [
            "0xde22baff038e3a3e08407cbdf617deed74e869a7ba517df611e33131c6e6ea04",
            "0x0000000000000000000000009a56ffd72f4b526c523c733f1f74197a51c495e1",
            "0x0000000000000000000000007cfbd302f1f8e02347862641973792cbd60c453f"
          ],
          "data": "0x000000000000000000000000000000000000000000000000016345785d8a0000",
          "blockHash": "0x3050fb30e34e8ac764fed3363e8f5e12407be58ba9861c4a7d449ac017dd00d8",
          "blockNumber": "0x1931da7",
          "transactionHash": "0x456924d9822b9eef561e4634a7fc95e50efce636ff1b91cea7bfbd00c820e3eb",
          "transactionIndex": "0x1",
          "logIndex": "0x1",
          "removed": false
        },
        {
          "address": "0x7cfbd302f1f8e02347862641973792cbd60c453f",
          "topics": [
            "0x538389eb6f370b4851ce2f642d98b538b9e2ee2f1ead7515695ee6c410c885e9",
            "0x0000000000000000000000003a5890d3f7cdb45f4c8d08a2969ad5084fdb7f78",
            "0x0000000000000000000000009a56ffd72f4b526c523c733f1f74197a51c495e1",
            "0x0000000000000000000000009a56ffd72f4b526c523c733f1f74197a51c495e1"
          ],
          "data": "0x000000000000000000000000000000000000000000000000016345785d8a0000",
          "blockHash": "0x3050fb30e34e8ac764fed3363e8f5e12407be58ba9861c4a7d449ac017dd00d8",
          "blockNumber": "0x1931da7",
          "transactionHash": "0x456924d9822b9eef561e4634a7fc95e50efce636ff1b91cea7bfbd00c820e3eb",
          "transactionIndex": "0x1",
          "logIndex": "0x2",
          "removed": false
        }
      ],
      "logsBloom": "0x00000004000000000000000000000000000000002000000200000000000000000000000002000000000000000000000000000000000000000000000000040000800080000000000000000009000000000000000000000000000000200000000000000008020000000000000000002800000000000000000000000010000000000000000080000000000000000800000000008000200000000000000000000000000000000040000000000000000000000000000000000000000000000000021000000002000000000000001000000200000000000000000000000000000020000000000000000000000000000000000000000000000000008000000000000000",
      "type": "0x2",
      "transactionHash": "0x456924d9822b9eef561e4634a7fc95e50efce636ff1b91cea7bfbd00c820e3eb",
      "transactionIndex": "0x1",
      "blockHash": "0x3050fb30e34e8ac764fed3363e8f5e12407be58ba9861c4a7d449ac017dd00d8",
      "blockNumber": "0x1931da7",
      "gasUsed": "0x12bb4",
      "effectiveGasPrice": "0xfd",
      "from": "0x9a56ffd72f4b526c523c733f1f74197a51c495e1",
      "to": "0x7cfbd302f1f8e02347862641973792cbd60c453f",
      "contractAddress": null,
      "l1BaseFeeScalar": "0x3d1",
      "l1BlobBaseFee": "0x69849e63d",
      "l1BlobBaseFeeScalar": "0x8ee87",
      "l1Fee": "0x1b126e6b4d2",
      "l1GasPrice": "0x16326eee",
      "l1GasUsed": "0x702"
    }
  ],
  "libraries": [],
  "pending": [],
  "returns": {},
  "timestamp": 1740705130,
  "chain": 919,
  "commit": "dcdc993"
}