{
  "transactions": [
    {
      "hash": "0x45df566f3d06a2c526975e9e4ea33ce6908733b01e15b87d1f5edefc6af492a4",
      "transactionType": "CALL",
      "contractName": null,
      "contractAddress": "0x7cfbd302f1f8e02347862641973792cbd60c453f",
      "function": "sendERC20(address,address,uint256,uint256)",
      "arguments": [
        "0x3A5890D3F7cDB45F4c8d08a2969AD5084Fdb7f78",
        "0x9a56fFd72F4B526c523C733F1F74197A51c495E1",
        "100000000000000000",
        "919"
      ],
      "transaction": {
        "from": "0x9a56ffd72f4b526c523c733f1f74197a51c495e1",
        "to": "0x7cfbd302f1f8e02347862641973792cbd60c453f",
        "gas": "0xf562",
        "value": "0x0",
        "input": "0xc1a433d80000000000000000000000003a5890d3f7cdb45f4c8d08a2969ad5084fdb7f780000000000000000000000009a56ffd72f4b526c523c733f1f74197a51c495e1000000000000000000000000000000000000000000000000016345785d8a00000000000000000000000000000000000000000000000000000000000000000397",
        "nonce": "0x5",
        "chainId": "0x14a34"
      },
      "additionalContracts": [],
      "isFixedGasLimit": false
    }
  ],
  "receipts": [
    {
      "status": "0x1",
      "cumulativeGasUsed": "0x2de3a2",
      "logs": [
        {
          "address": "0x3a5890d3f7cdb45f4c8d08a2969ad5084fdb7f78",
          "topics": [
            "0xddf252ad1be2c89b69c2b068fc378daa952ba7f163c4a11628f55a4df523b3ef",
            "0x0000000000000000000000009a56ffd72f4b526c523c733f1f74197a51c495e1",
            "0x0000000000000000000000000000000000000000000000000000000000000000"
          ],
          "data": "0x000000000000000000000000000000000000000000000000016345785d8a0000",
          "blockHash": "0xdb8721cdd1fe2efe28d5222a77999d7dbfc038e6b038dded279fee248bef2ce4",
          "blockNumber": "0x156d71a",
          "transactionHash": "0x45df566f3d06a2c526975e9e4ea33ce6908733b01e15b87d1f5edefc6af492a4",
          "transactionIndex": "0x18",
          "logIndex": "0x31",
          "removed": false
        },
        {
          "address": "0x3a5890d3f7cdb45f4c8d08a2969ad5084fdb7f78",
          "topics": [
            "0xb90795a66650155983e242cac3e1ac1a4dc26f8ed2987f3ce416a34e00111fd4",
            "0x0000000000000000000000009a56ffd72f4b526c523c733f1f74197a51c495e1",
            "0x0000000000000000000000007cfbd302f1f8e02347862641973792cbd60c453f"
          ],
          "data": "0x000000000000000000000000000000000000000000000000016345785d8a0000",
          "blockHash": "0xdb8721cdd1fe2efe28d5222a77999d7dbfc038e6b038dded279fee248bef2ce4",
          "blockNumber": "0x156d71a",
          "transactionHash": "0x45df566f3d06a2c526975e9e4ea33ce6908733b01e15b87d1f5edefc6af492a4",
          "transactionIndex": "0x18",
          "logIndex": "0x32",
          "removed": false
        },
        {
          "address": "0x7cfbd302f1f8e02347862641973792cbd60c453f",
          "topics": [
            "0x0247bfe63a1aaa59e073e20b172889babfda8d3273b5798e0e9ac4388e6dd11c",
            "0x0000000000000000000000003a5890d3f7cdb45f4c8d08a2969ad5084fdb7f78",
            "0x0000000000000000000000009a56ffd72f4b526c523c733f1f74197a51c495e1",
            "0x0000000000000000000000009a56ffd72f4b526c523c733f1f74197a51c495e1"
          ],
          "data": "0x000000000000000000000000000000000000000000000000016345785d8a00000000000000000000000000000000000000000000000000000000000000000397",
          "blockHash": "0xdb8721cdd1fe2efe28d5222a77999d7dbfc038e6b038dded279fee248bef2ce4",
          "blockNumber": "0x156d71a",
          "transactionHash": "0x45df566f3d06a2c526975e9e4ea33ce6908733b01e15b87d1f5edefc6af492a4",
          "transactionIndex": "0x18",
          "logIndex": "0x33",
          "removed": false
        }
      ],
      "logsBloom": "0x00000004000800000000000000000000000000002000000200000000000200000000000000000000000000000000000000000000000000000000000000040000800080000000000000000009000000000000000000000000000000000000000000000000020000000000000000002800000000000000000040000010000000000000000080000000000000000800000000000000000000000000010000000000000000000000000000000000000000000000000000000000000000000000021800000002000000000000001000000200000000000000000000000000000020000000000000000000000000000000000000010000000000008000000000000000",
      "type": "0x2",
      "transactionHash": "0x45df566f3d06a2c526975e9e4ea33ce6908733b01e15b87d1f5edefc6af492a4",
      "transactionIndex": "0x18",
      "blockHash": "0xdb8721cdd1fe2efe28d5222a77999d7dbfc038e6b038dded279fee248bef2ce4",
      "blockNumber": "0x156d71a",
      "gasUsed": "0xa7c9",
      "effectiveGasPrice": "0xf43c1",
      "from": "0x9a56ffd72f4b526c523c733f1f74197a51c495e1",
      "to": "0x7cfbd302f1f8e02347862641973792cbd60c453f",
      "contractAddress": null,
      "l1BaseFeeScalar": "0x44d",
      "l1BlobBaseFee": "0x76b5324b4",
      "l1BlobBaseFeeScalar": "0xa118b",
      "l1Fee": "0x239cb457cbb",
      "l1GasPrice": "0x1858c213",
      "l1GasUsed": "0x745"
    }
  ],
  "libraries": [],
  "pending": [],
  "returns": {},
  "timestamp": 1740705046,
  "chain": 84532,
  "commit": "dcdc993"
}